S0180000506F776572436F75706C6552756C65722E737265638D
S11300000C945A000C9477000C9477000C9409011A
S11300100C9477000C9479000C9477000C9477007E
S11300200C9477000C9477000C9477000C94770070
S11300300C9477000C9477000C9477000C94770060
S11300400C9477000C9477000C9477000C94770050
S11300500C9477000C9477000C9477000C94770040
S11300600C9477000C9477000C9477000C94770030
S11300700C9477000C9477000C9477000C94770020
S11300800C9477000C9477000C9477000C94770010
S11300900C9477000C9477000C9477000C94770000
S11300A00C9477000C9477000C9477000C947700F0
S11300B00C94770011241FBECFEFD8E0DEBFCDBF74
S11300C011E0A0E0B1E0E8E5F6E002C005900D9291
S11300D0A231B107D9F721E0A2E1B1E001C01D923C
S11300E0A631B207E1F70E94F5010C942A030C949F
S11300F000001F920F920FB60F9211242F933F937B
S11301004F935F936F937F938F939F93AF93BF931B
S1130110EF93FF938FEF0E94120289B18C7F80933B
S11301200001FF91EF91BF91AF919F918F917F91CA
S11301306F915F914F913F912F910F900FBE0F9050
S11301401F9018958AB183708AB98BB18C6F8BB963
S1130150E8E6F0E0808184608083EDE6F0E0808171
S11301608C6F8083089581E090E08630910534F4AB
S1130170FC01EE5FFE4F10820196F7CF8FE39CE9FE
S11301800197F1F700C0000082E08093010181E053
S113019090E0863091053CF4FC01EE5FFE4F20ECCC
S11301A020830196F6CFE2E0F1E0828180788283B9
S11301B066E0CF010E941902089562E088E091E0B0
S11301C00E9419020E94B300089587B1816087B923
S11301D088B18E7F88B987B1826087B988B182601F
S11301E088B984B18C7F84B985B1836085B9E8E628
S11301F0F0E0808181608083EBE6F0E080818360C1
S1130200808383B1837090E09093150180931401EF
S113021008951F920F920FB60F9211242F933F93BC
S11302204F935F936F937F938F939F93AF93BF93FA
S1130230CF93DF93EF93FF93C3B1C370D0E081E01A
S11302400E9412028091140190911501019719F4F2
S1130250C230D105E1F0809114019091150102970B
S113026011F42097B1F08091140190911501892B1C
S113027019F4C130D10579F08091140190911501E0
S1130280039759F4C230D10551F080E009C081E0F0
S113029007C081E005C081E003C080E001C081E0C7
S11302A0882381F08091100190911101019690931F
S11302B011018093100181E090E0909313018093E9
S11302C012014FC0209114013091150122303105E3
S11302D019F4C130D105E9F02091140130911501D0
S11302E02130310511F42097B1F02091140130919F
S11302F01501232B19F4C230D10579F02091140192
S1130300309115012330310559F4C130D10541F440
S113031006C081E005C081E003C081E001C081E046
S11303208823F9F080910A0190910B01029751F40E
S11303308091100190911101019790931101809384
S1130340100109C0809110019091110101969093C0
S113035011018093100182E090E090931301809347
S11303601201D0931501C0931401FF91EF91DF9115
S1130370CF91BF91AF919F918F917F916F915F9139
S11303804F913F912F910F900FBE0F901F90189592
S11303906091100170911101072E000C880B990BCC
S11303A00E94310220910C0130910D0140910E0107
S11303B050910F010E946C0208950E94FA010E945C
S11303C0DD000E94A2000E94E50008950E94C80179
S11303D081E00E9412022FEF81EE94E021508040D0
S11303E09040E1F700C0000008950E94DD010E94E2
S11303F0E601FDCF1092C50087E68093C400E0ECCF
S1130400F0E0808182608083E1ECF0E080818861AB
S11304108083E2ECF0E08081866080838081806369
S1130420808308959091C00095FFFCCF8093C6000F
S11304300895DC0120E030E0462F50E02417350712
S113044068F49091C00095FFFCCFFD01E20FF31F0B
S113045090819093C6002F5F3F4FEECF0895E894AC
S113046009C097FB3EF490958095709561957F4FF8
S11304708F4F9F4F9923A9F0F92F96E9BB279395A6
S1130480F695879577956795B795F111F8CFFAF4B6
S1130490BB0F11F460FF1BC06F5F7F4F8F4F9F4FE7
S11304A016C0882311F096E911C0772321F09EE845
S11304B0872F762F05C0662371F096E8862F70E0AB
S11304C060E02AF09A95660F771F881FDAF7880F85
S11304D09695879597F908950E947F020C94F002EF
S11304E00E94E20238F00E94E90220F0952311F004
S11304F00C94D9020C94DF0211240C9424030E945E
S1130500010370F3959FC1F3950F50E0551F629F4F
S1130510F001729FBB27F00DB11D639FAA27F00D58
S1130520B11DAA1F649F6627B00DA11D661F829F7F
S11305302227B00DA11D621F739FB00DA11D621F64
S1130540839FA00D611D221F749F3327A00D611D81
S1130550231F849F600D211D822F762F6A2F112463
S11305609F5750409AF0F1F088234AF0EE0FFF1F96
S1130570BB1F661F771F881F91505040A9F79E3FED
S1130580510580F00C94D9020C9424035F3FE4F3EA
S1130590983ED4F3869577956795B795F795E79543
S11305A09F5FC1F7FE2B880F911D9695879597F94C
S11305B0089597F99F6780E870E060E008959FEFE1
S11305C080EC089500240A941616170618060906E6
S11305D0089500240A9412161306140605060895B5
S11305E0092E0394000C11F4882352F0BB0F40F43D
S11305F0BF2B11F460FF04C06F5F7F4F8F4F9F4F7D
S1130600089557FD9058440F551F59F05F3F71F0FE
S11306104795880F97FB991F61F09F3F79F0879565
S11306200895121613061406551FF2CF4695F1DFEE
S113063008C0161617061806991FF1CF869571057E
S1130640610508940895E894BB2766277727CB01B2
S10B065097F90895F894FFCF17
S1130658FC0208000000000018F80100D7316240CD
S105066801008B
S9030000FC
