S0180000506F776572436F75706C6552756C65722E737265638D
S11300000C945A000C9477000C9477000C94D30051
S11300100C9477000C9479000C9477000C9477007E
S11300200C9477000C9477000C9477000C94770070
S11300300C9477000C9477000C9477000C94770060
S11300400C9477000C9477000C9477000C94770050
S11300500C9477000C9477000C9477000C94770040
S11300600C9477000C9477000C9477000C94770030
S11300700C9477000C9477000C9477000C94770020
S11300800C9477000C9477000C9477000C94770010
S11300900C9477000C9477000C9477000C94770000
S11300A00C9477000C9477000C9477000C947700F0
S11300B00C94770011241FBECFEFD8E0DEBFCDBF74
S11300C011E0A0E0B1E0E2E9F3E002C005900D9296
S11300D0AC30B107D9F721E0ACE0B1E001C01D922A
S11300E0A231B207E1F70E9492010C94C7010C946B
S11300F000001F920F920FB60F9211248F9389B1B3
S11301008C7F809300018F910F900FBE0F901F90F2
S113011018958AB183708AB98BB18C6F8BB9E8E674
S1130120F0E0808184608083EDE6F0E080818C6F74
S11301308083089582E08093010181E090E086301D
S113014091053CF4FC01EE5FFE4F2FE32083019602
S1130150F6CFE2E0F1E082818068828366E0CF013D
S11301600E94B101089562E088E091E00E94B1012B
S11301700E949A00089584B18C7F84B985B183600C
S113018085B9E8E6F0E0808181608083EBE6F0E009
S113019080818360808383B1837090E090930F01AA
S11301A080930E0108951F920F920FB60F9211249F
S11301B02F933F934F935F938F939F9383B1837058
S11301C090E020910E0130910F012130310519F496
S11301D082309105F1F020910E0130910F0122300F
S11301E0310511F40097B9F020910E0130910F01FF
S11301F0232B19F48130910581F020910E01309167
S11302000F012330310559F48230910551F020E07B
S113021009C021E007C021E005C021E003C020E0BF
S113022001C021E0222389F02091100130911101B5
S11302302F5F3F4F309311012093100121E030E0F4
S113024030930D0120930C0152C040910E01509146
S11302500F014230510519F481309105E9F04091C4
S11302600E0150910F014130510511F40097B1F086
S113027040910E0150910F01452B19F482309105E4
S113028079F040910E0150910F014330510559F41A
S11302908130910541F406C021E005C021E003C08E
S11302A021E001C021E0222311F120910A013091C3
S11302B00B012230310559F42091100130911101C4
S11302C02150310930931101209310010AC020916B
S11302D01001309111012F5F3F4F30931101209392
S11302E0100122E030E030930D0120930C01909333
S11302F00F0180930E019F918F915F914F913F91D8
S11303002F910F900FBE0F901F9018950E94960189
S11303100E94B3000E9495010E9489000E94BB00C4
S1130320789408950E948601FFCF08951092C50025
S113033087E68093C400E0ECF0E0808182608083F3
S1130340E1ECF0E0808188618083E2ECF0E0808180
S1130350866080838081866280838081877F8083BA
S11303600895DC0120E030E0462F50E024173507E3
S113037068F49091C00095FFFCCFFD01E20FF31FDC
S113038090819093C6002F5F3F4FEECF0895F8946D
S1050390FFCF99
S10F0392FC020800000000001808010034
S9030000FC
