S0180000506F776572436F75706C6552756C65722E737265638D
S11300000C945A000C9477000C9477000C94D30051
S11300100C9477000C9479000C9477000C9477007E
S11300200C9477000C9477000C9477000C94770070
S11300300C9477000C9477000C9477000C94770060
S11300400C9477000C9477000C9477000C94770050
S11300500C9477000C9477000C9477000C94770040
S11300600C9477000C9477000C9477000C94770030
S11300700C9477000C9477000C9477000C94770020
S11300800C9477000C9477000C9477000C94770010
S11300900C9477000C9477000C9477000C94770000
S11300A00C9477000C9477000C9477000C947700F0
S11300B00C94770011241FBECFEFD8E0DEBFCDBF74
S11300C011E0A0E0B1E0E8EBF3E002C005900D928E
S11300D0A830B107D9F721E0A8E0B1E001C01D9232
S11300E0AE30B207E1F70E949F010C94DA010C9440
S11300F000001F920F920FB60F9211248F9389B1B3
S11301008C7F809300018F910F900FBE0F901F90F2
S113011018958AB183708AB98BB18C6F8BB9E8E674
S1130120F0E0808184608083EDE6F0E080818C6F74
S11301308083089582E08093010181E090E086301D
S113014091053CF4FC01EE5FFE4F2FE32083019602
S1130150F6CFE2E0F1E082818068828362E0CF0141
S11301600E94C401089562E084E091E00E94C40109
S11301700E949A00089584B18C7F84B985B183600C
S113018085B9E8E6F0E0808181608083EBE6F0E009
S113019080818360808383B1837090E090930B01AE
S11301A080930A0108951F920F920FB60F921124A3
S11301B02F933F934F935F938F939F9383B1837058
S11301C090E020910A0130910B012130310519F49E
S11301D082309105F1F020910A0130910B01223017
S11301E0310511F40097B9F020910A0130910B0107
S11301F0232B19F48130910581F020910A0130916B
S11302000B012330310559F48230910551F020E07F
S113021009C021E007C021E005C021E003C020E0BF
S113022001C021E0222389F020910C0130910D01BD
S11302302F5F3F4F30930D0120930C0121E030E0FC
S1130240309309012093080152C040910A01509152
S11302500B014230510519F481309105E9F04091C8
S11302600A0150910B014130510511F40097B1F08E
S113027040910A0150910B01452B19F482309105EC
S113028079F040910A0150910B014330510559F422
S11302908130910541F406C021E005C021E003C08E
S11302A021E001C021E0222311F1209106013091C7
S11302B007012230310559F420910C0130910D01D0
S11302C02150310930930D0120930C010AC0209173
S11302D00C0130910D012F5F3F4F30930D0120939E
S11302E00C0122E030E0309309012093080190933F
S11302F00B0180930A019F918F915F914F913F91E0
S11303002F910F900FBE0F901F9018950E94A5017A
S11303100E94B3000E94A4010E9489000E94BB00B5
S11303207894089589E60E94BD012FEF81EE94E050
S1130330215080409040E1F700C0000008950E94E1
S113034086010E949201FDCF08951092C50087E6B0
S11303508093C400E0ECF0E0808182608083E1EC73
S1130360F0E0808188618083E2ECF0E08081866047
S1130370808380818662808308959091C00095FF78
S1130380FCCF8093C6000895DC0120E030E0462FC6
S113039050E02417350768F49091C00095FFFCCF16
S11303A0FD01E20FF31F90819093C6002F5F3F4F32
S10B03B0EECF0895F894FFCF8D
S10B03B8FC0208001811010009
S9030000FC
