S0180000506F776572436F75706C6552756C65722E737265638D
S11300000C945A000C9477000C9477000C947700AD
S11300100C9467010C9479000C9477000C9477008D
S11300200C9477000C9477000C9477000C94770070
S11300300C9477000C9477000C9477000C94770060
S11300400C9477000C9477000C9477000C94770050
S11300500C9477000C9477000C9477000C94770040
S11300600C9477000C9477000C9477000C94770030
S11300700C9477000C9477000C9477000C94770020
S11300800C9477000C9477000C9477000C94770010
S11300900C9477000C9477000C9477000C94770000
S11300A00C9477000C9477000C9477000C947700F0
S11300B00C94770011241FBECFEFD8E0DEBFCDBF74
S11300C011E0A0E0B1E0ECEFF3E002C005900D9286
S11300D0AA30B107D9F721E0AAE0B1E001C01D922E
S11300E0A031B207E1F70E94BC010C94FC010C940E
S11300F000001F920F920FB60F9211242F933F937B
S11301004F935F936F937F938F939F93AF93BF931B
S1130110EF93FF9382EF0E94DF0189B18C7F80937C
S11301200001FF91EF91BF91AF919F918F917F91CA
S11301306F915F914F913F912F910F900FBE0F9050
S11301401F9018958AB183708AB98BB18C6F8BB963
S1130150E8E6F0E0808184608083EDE6F0E0808171
S11301608C6F8083089581E090E08630910534F4AB
S1130170FC01EE5FFE4F10820196F7CF8FE39CE9FE
S11301800197F1F700C0000082E08093010181E053
S113019090E0863091053CF4FC01EE5FFE4F20ECCC
S11301A020830196F6CFE2E0F1E0828180788283B9
S11301B066E0CF010E94E601089562E088E091E0E4
S11301C00E94E6010E94B30008958DB188608DB944
S11301D087B1816087B98EB188608EB988B18E7F0E
S11301E088B984B18B7F84B987B18D7F87B985B194
S11301F0846085B988B1826088B9E8E6F0E08081DE
S113020081608083EBE6F0E080818460808383B149
S1130210847090E09595879595958795880F991F9B
S113022026B1227030E035952795822B932B90933D
S11302300B0180930A01089583B1847090E0959531
S113024087959595879526B1227030E03595279549
S1130250880F991F822B932B20910A0130910B0157
S1130260220F331F220F331F282B392B2D3031053A
S113027049F02430310531F02230310519F02B30AA
S1130280310551F440910C0150910D014F5F5F4FC6
S113029050930D0140930C012E30310549F0273065
S11302A0310531F02130310519F02830310551F490
S11302B020910C0130910D012150310930930D0131
S11302C020930C0190930B0180930A0108951F92CF
S11302D00F920FB60F9211242F933F934F935F9376
S11302E06F937F938F939F93AF93BF93EF93FF93FA
S11302F00E941C018AEA0E94DF01FF91EF91BF91E5
S1130300AF919F918F917F916F915F914F913F91A9
S11303102F910F900FBE0F901F90189580910C0194
S113032090910D0108950E94C1010E94DD000E9478
S1130330A2000E94E50078940895CF93DF930E9471
S11303408E01EC0180910E0190910F01C817D9071D
S113035039F08C2F0E94DF01D0930F01C0930E015E
S11303602FEF81EE94E0215080409040E1F700C0EF
S11303700000DF91CF9108950E9493010E949D0196
S1130380FDCF1092C50087E68093C400E0ECF0E056
S1130390808182608083E1ECF0E0808188618083E9
S11303A0E2ECF0E0808186608083808180638083DA
S11303B080818062808380818063808308959091AE
S11303C0C00095FFFCCF8093C6000895DC0120E0B7
S11303D030E0462F50E02417350768F49091C000B0
S11303E095FFFCCFFD01E20FF31F90819093C600AF
S10F03F02F5F3F4FEECF0895F894FFCF2D
S10D03FCFC0208000000000018F8DD
S9030000FC
