:100000000C945A000C9477000C9477000C94D30055
:100010000C9477000C9479000C9477000C94770082
:100020000C9477000C9477000C9477000C94770074
:100030000C9477000C9477000C9477000C94770064
:100040000C9477000C9477000C9477000C94770054
:100050000C9477000C9477000C9477000C94770044
:100060000C9477000C9477000C9477000C94770034
:100070000C9477000C9477000C9477000C94770024
:100080000C9477000C9477000C9477000C94770014
:100090000C9477000C9477000C9477000C94770004
:1000A0000C9477000C9477000C9477000C947700F4
:1000B0000C94770011241FBECFEFD8E0DEBFCDBF78
:1000C00011E0A0E0B1E0EAE9F3E002C005900D9292
:1000D000A631B107D9F721E0A6E1B1E001C01D9238
:1000E000AC31B207E1F70E9498010C94CB010C945B
:1000F00000001F920F920FB60F9211248F9389B1B7
:100100008C7F809300018F910F900FBE0F901F90F6
:100110001895CF93DF93C0E0D0E0CA30D105FCF44E
:1001200081E090E08630910554F4FE01EF5FFE4FD0
:100130002081FC01E45FFE4F20830196F3CF66E04F
:100140008CE091E00E94B5012FEF83ED90E3215008
:1001500080409040E1F700C000002196DECFDF91A3
:10016000CF91089582E080930B0181E090E086308A
:1001700091053CF4FC01E45FFE4F20E820830196EA
:10018000F6CFECE0F1E082818F67828366E0CF01F9
:100190000E94B501089562E082E191E00E94B501FC
:1001A0000E94B20008951F920F920FB60F92112471
:1001B0002F933F934F935F938F939F9383B183705C
:1001C00090E020911801309119012130310519F486
:1001D00082309105F1F020911801309119012230FF
:1001E000310511F40097B9F02091180130911901EF
:1001F000232B19F48130910581F020911801309161
:1002000019012330310559F48230910551F020E075
:1002100009C021E007C021E005C021E003C020E0C3
:1002200001C021E0222389F020911A0130911B01A5
:100230002F5F3F4F30931B0120931A0121E030E0E4
:10024000309317012093160152C04091180150912C
:1002500019014230510519F481309105E9F04091BE
:100260001801509119014130510511F40097B1F076
:100270004091180150911901452B19F482309105D4
:1002800079F040911801509119014330510559F40A
:100290008130910541F406C021E005C021E003C092
:1002A00021E001C021E0222311F1209114013091BD
:1002B00015012230310559F420911A0130911B01AA
:1002C0002150310930931B0120931A010AC020915B
:1002D0001A0130911B012F5F3F4F30931B01209378
:1002E0001A0122E030E03093170120931601909319
:1002F0001901809318019F918F915F914F913F91C8
:100300002F910F900FBE0F901F9018950E949D0186
:100310000E94CB007894089560E070E0CB010E94C9
:1003200089008FE39CE90197F1F700C00000089570
:100330000E9486010E948C01FDCF1092C50087E6C5
:100340008093C400E0ECF0E0808182608083E1EC87
:10035000F0E0808188618083E2ECF0E0808186605B
:1003600080838081806380830895DC0120E030E019
:10037000462F50E02417350768F49091C00095FF90
:10038000FCCFFD01E20FF31F90819093C6002F5F19
:0A0390003F4FEECF0895F894FFCF21
:10039A00FCC0F9A4B0999282F8809002080000008B
:0603AA00000018F801003C
:00000001FF
